S01700004C7563687462616C6C6F6E323031392E73726563C9
S113000012C02AC029C028C027C026C025C0A0C04D
S113001023C022C021C020C01FC01EC01DC01CC0E0
S11300201BC01AC019C011241FBECFEDCDBF10E0F4
S1130030A0E6B0E0ECE1F6E002C005900D92A63631
S1130040B107D9F720E0A6E6B0E001C01D92AE37B3
S1130050B207E1F72ED1E0C2D3CF12B885E089B957
S113006080E98AB986E083B90895109278001092E5
S1130070710008951092700080917300882324F415
S11300808EE1809364000CC01092640010926C00A6
S11300901092690010926B00109268008FE088BB88
S11300A081E0809365000895CF9390917000913022
S11300B009F44CC0C82F80917100863030F0D5DF30
S11300C010926F0081E0809365008091710081112E
S11300D004C0809166008C17B1F1E091710081E059
S11300E08E0F80937100F0E0E858FF4FC083CD304D
S11300F021F580916F00882349F180916500811179
S113010011C081E080937000E2E7F0E080E090E0CD
S1130110DC01A858BF4F2C9121930196863091059C
S1130120B9F7A8DF81E0809365009FDF80E090E26B
S113013090936E0080936D0009C0CA3039F481E059
S113014080936F0003C010926500C7CFCF910895CC
S11301501F920F920FB60F9211242F933F934F9338
S11301605F936F937F938F939F93AF93BF93EF931B
S1130170FF938CB199DFFF91EF91BF91AF919F9164
S11301808F917F916F915F914F913F912F910F903C
S11301900FBE0F901F901895EF92FF920F931F932D
S11301A0CF93DF93EC017B01122F8881813011F50D
S11301B0A0D16BEA7AE22CD1672B79F428B381E0E1
S11301C090E002C0880F991F1A95E2F78095822368
S11301D088BB81E0F701808326C028B381E090E0EA
S11301E002C0880F991F1A95E2F7822B88BBF7018A
S11301F0108219C0FB0180818130A9F4FA01808149
S11302008F5F80838081853070F028B381E090E037
S113021002C0880F991F1A95E2F7822B88BBFB0155
S11302201082FA01108265D18115904801F188810C
S113023081110EC028B381E090E002C0880F991F9D
S11302400A95E2F78095822388BB81E088830FC0FA
S1130250F701808181110BC028B381E090E002C0D6
S1130260880F991F0A95E2F7822B88BB1882DF91C9
S1130270CF911F910F91FF90EF90089580E090E04F
S11302804ED16F3F2FEF72078207910521F46FEE75
S11302907EEB8DEA9EEDCB0130D12BD1AC01990FD1
S11302A0660B770B80E090E03DD18EE18093640093
S11302B008958FE087BB88BBD0DE84E090E028D12E
S11302C0809366007894DADF10E0C0E0D0E00F2E6F
S11302D0F0E98F2EF2E09F2EF02D0F2EF2E8EF2E94
S11302E0F12CF02D0F2EFFE07F2EF02D0F2EF8E4D1
S11302F0AF2EBB24B394F02D0F2EF4EACF2ED12CC5
S1130300F02D209711F02197FCCF809164008E315D
S1130310A9F0111116C080916C00811173C08091F5
S1130320690081116FC080916B0081116BC0809155
S11303306800811107C0C0EDD7E048C0112309F45B
S113034061C01150809164008E3119F4112309F4B5
S113035053C0CFD0992314F48150904EC92FC59522
S1130360C595C595C595C5958C2F8D7F813049F46C
S113037000E021E04AE650E06BE670E08CE690E0B5
S11303800BDF8EEF8C0F823048F403E022E047E667
S113039050E068E670E089E690E0FEDEC150C330CC
S11303A038F4A7D0B60134D0EB01CC59DF4F0EC0DE
S11303B010926C001092690010926B001092680009
S11303C078BA97D0B50124D0EB01E29680916D0004
S11303D090916E00892B31F48CD0B70119D06093C1
S11303E064008FCF80916D0090916E00019790937F
S11303F06E0080936D0085CF7CD0B40109D012E3E8
S1130400160FA7CF809164008E31B1F310E0A1CF15
S113041097FB072E16F4009406D077FD08D00BD076
S113042007FC05D03EF4909581959F4F08957095F3
S113043061957F4F0895AA1BBB1B51E107C0AA1FFA
S1130440BB1FA617B70710F0A61BB70B881F991F71
S11304505A95A9F780959095BC01CD0108958F9286
S11304609F92AF92BF92CF92DF92EF92FF92CF937F
S1130470DF93EC01688179818A819B816115710523
S11304808105910521F464E279ED8BE597E02DE196
S113049033EF41E050E082D049015A0127EA31E4C8
S11304A040E050E062D06B017C012CEE34EF4FEF62
S11304B05FEFC501B40159D0DC01CB018C0D9D1D4A
S11304C0AE1DBF1DB7FF03C00197A109B0488883C3
S11304D09983AA83BB839F77DF91CF91FF90EF909D
S11304E0DF90CF90BF90AF909F908F900895B7DF2B
S11304F0089580E690E0B3DF0895A0E0B0E0809333
S1130500600090936100A0936200B093630008952B
S1130510E199FECF8EBBE09A99278DB30895A6E1A9
S113052044E00AC0242F15D0252F13D000C010D0CA
S1130530272F0FC0A82F862FE82FE199FECF05C0E3
S1130540EEBBE09AE3950DB20D924150C8F70895C1
S1130550262FE199FECF1CBA8EBB2DBB0FB6F894A3
S1130560E29AE19A0FBE01960895EE27FF27AA2783
S1130570BB2708C0A20FB31FE41FF51F220F331FB0
S1130580441F551F969587957795679598F3704006
S1130590A9F7009799F7BD01CF010895052E97FBA0
S11305A016F400940FD057FD05D014D007FC02D0E8
S11305B046F408C050954095309521953F4F4F4FD4
S11305C05F4F089590958095709561957F4F8F4FFB
S11305D09F4F0895A1E21A2EAA1BBB1BFD010DC05B
S11305E0AA1FBB1FEE1FFF1FA217B307E407F507DF
S11305F020F0A21BB30BE40BF50B661F771F881FBB
S1130600991F1A9469F760957095809590959B0150
S10F0610AC01BD01CF010895F894FFCFA8
S109061C010000001E01B4
S9030000FC
